{
  "contractName": "ComplexStorage",
  "abi": [
    {
      "constant": true,
      "inputs": [],
      "name": "string2",
      "outputs": [
        {
          "name": "",
          "type": "bytes32"
        }
      ],
      "payable": false,
      "stateMutability": "view",
      "type": "function"
    },
    {
      "constant": true,
      "inputs": [],
      "name": "storeduint1",
      "outputs": [
        {
          "name": "",
          "type": "uint256"
        }
      ],
      "payable": false,
      "stateMutability": "view",
      "type": "function"
    },
    {
      "constant": true,
      "inputs": [],
      "name": "singleDD",
      "outputs": [
        {
          "name": "deviceBrand",
          "type": "string"
        },
        {
          "name": "deviceYear",
          "type": "string"
        },
        {
          "name": "batteryWearLevel",
          "type": "string"
        }
      ],
      "payable": false,
      "stateMutability": "view",
      "type": "function"
    },
    {
      "constant": true,
      "inputs": [
        {
          "name": "",
          "type": "uint256"
        }
      ],
      "name": "uintarray",
      "outputs": [
        {
          "name": "",
          "type": "uint256"
        }
      ],
      "payable": false,
      "stateMutability": "view",
      "type": "function"
    },
    {
      "constant": true,
      "inputs": [
        {
          "name": "",
          "type": "uint256"
        }
      ],
      "name": "deviceDataArray",
      "outputs": [
        {
          "name": "deviceBrand",
          "type": "string"
        },
        {
          "name": "deviceYear",
          "type": "string"
        },
        {
          "name": "batteryWearLevel",
          "type": "string"
        }
      ],
      "payable": false,
      "stateMutability": "view",
      "type": "function"
    },
    {
      "constant": true,
      "inputs": [],
      "name": "string3",
      "outputs": [
        {
          "name": "",
          "type": "string"
        }
      ],
      "payable": false,
      "stateMutability": "view",
      "type": "function"
    },
    {
      "constant": true,
      "inputs": [],
      "name": "constuint",
      "outputs": [
        {
          "name": "",
          "type": "uint256"
        }
      ],
      "payable": false,
      "stateMutability": "view",
      "type": "function"
    },
    {
      "constant": true,
      "inputs": [],
      "name": "string1",
      "outputs": [
        {
          "name": "",
          "type": "bytes"
        }
      ],
      "payable": false,
      "stateMutability": "view",
      "type": "function"
    },
    {
      "constant": true,
      "inputs": [],
      "name": "investmentsDeadlineTimeStamp",
      "outputs": [
        {
          "name": "",
          "type": "uint32"
        }
      ],
      "payable": false,
      "stateMutability": "view",
      "type": "function"
    },
    {
      "constant": true,
      "inputs": [],
      "name": "investmentsLimit",
      "outputs": [
        {
          "name": "",
          "type": "uint128"
        }
      ],
      "payable": false,
      "stateMutability": "view",
      "type": "function"
    },
    {
      "inputs": [],
      "payable": false,
      "stateMutability": "nonpayable",
      "type": "constructor"
    },
    {
      "constant": true,
      "inputs": [],
      "name": "get_uintarray",
      "outputs": [
        {
          "name": "",
          "type": "uint256[]"
        }
      ],
      "payable": false,
      "stateMutability": "view",
      "type": "function"
    }
  ],
  "bytecode": "0x6080604052600f60005561429f600160006101000a8154816fffffffffffffffffffffffffffffffff02191690836fffffffffffffffffffffffffffffffff16021790555042600160106101000a81548163ffffffff021916908363ffffffff1602179055506040805190810160405280602081526020017f486579204920616d2061207574662d3820656e636f64656420737472696e672181525060029080519060200190620000b2929190620007fe565b507fe4bda0e5a5bdefbc8100000000000000000000000000000000000000000000006003556040805190810160405280601581526020017f6c65747320737472696e6720736f6d657468696e670000000000000000000000815250600490805190602001906200012492919062000885565b503480156200013257600080fd5b50600073bccc714d56bc0da0fd33d96d2a87b680dd6d0df69050600073aee905fdd3ed851e48d22059575b9f4245a82b0490506058600560008473ffffffffffffffffffffffffffffffffffffffff1673ffffffffffffffffffffffffffffffffffffffff168152602001908152602001600020819055506063600560008373ffffffffffffffffffffffffffffffffffffffff1673ffffffffffffffffffffffffffffffffffffffff168152602001908152602001600020819055506060604051908101604052806040805190810160405280600b81526020017f6465766963654272616e6400000000000000000000000000000000000000000081525081526020016040805190810160405280600a81526020017f646576696365596561720000000000000000000000000000000000000000000081525081526020016040805190810160405280600981526020017f776561724c6576656c0000000000000000000000000000000000000000000000815250815250600660008473ffffffffffffffffffffffffffffffffffffffff1673ffffffffffffffffffffffffffffffffffffffff1681526020019081526020016000206000820151816000019080519060200190620003079291906200090c565b506020820151816001019080519060200190620003269291906200090c565b506040820151816002019080519060200190620003459291906200090c565b509050506060604051908101604052806040805190810160405280600c81526020017f6465766963654272616e6432000000000000000000000000000000000000000081525081526020016040805190810160405280600b81526020017f646576696365596561723200000000000000000000000000000000000000000081525081526020016040805190810160405280600a81526020017f776561724c6576656c3200000000000000000000000000000000000000000000815250815250600660008373ffffffffffffffffffffffffffffffffffffffff1673ffffffffffffffffffffffffffffffffffffffff1681526020019081526020016000206000820151816000019080519060200190620004619291906200090c565b506020820151816001019080519060200190620004809291906200090c565b5060408201518160020190805190602001906200049f9291906200090c565b509050506060604051908101604052806040805190810160405280600c81526020017f6465766963654272616e6433000000000000000000000000000000000000000081525081526020016040805190810160405280600b81526020017f646576696365596561723300000000000000000000000000000000000000000081525081526020016040805190810160405280600a81526020017f776561724c6576656c3300000000000000000000000000000000000000000000815250815250600960008201518160000190805190602001906200057e9291906200090c565b5060208201518160010190805190602001906200059d9291906200090c565b506040820151816002019080519060200190620005bc9291906200090c565b509050506007611f409080600181540180825580915050906001820390600052602060002001600090919290919091505550600761232890806001815401808255809150509060018203906000526020600020016000909192909190915055506008600660008473ffffffffffffffffffffffffffffffffffffffff1673ffffffffffffffffffffffffffffffffffffffff1681526020019081526020016000209080600181540180825580915050906001820390600052602060002090600302016000909192909190915060008201816000019080546001816001161561010002031660029004620006b192919062000993565b5060018201816001019080546001816001161561010002031660029004620006db92919062000993565b50600282018160020190805460018160011615610100020316600290046200070592919062000993565b505050506008600660008373ffffffffffffffffffffffffffffffffffffffff1673ffffffffffffffffffffffffffffffffffffffff16815260200190815260200160002090806001815401808255809150509060018203906000526020600020906003020160009091929091909150600082018160000190805460018160011615610100020316600290046200079e92919062000993565b5060018201816001019080546001816001161561010002031660029004620007c892919062000993565b5060028201816002019080546001816001161561010002031660029004620007f292919062000993565b50505050505062000a49565b828054600181600116156101000203166002900490600052602060002090601f016020900481019282601f106200084157805160ff191683800117855562000872565b8280016001018555821562000872579182015b828111156200087157825182559160200191906001019062000854565b5b50905062000881919062000a21565b5090565b828054600181600116156101000203166002900490600052602060002090601f016020900481019282601f10620008c857805160ff1916838001178555620008f9565b82800160010185558215620008f9579182015b82811115620008f8578251825591602001919060010190620008db565b5b50905062000908919062000a21565b5090565b828054600181600116156101000203166002900490600052602060002090601f016020900481019282601f106200094f57805160ff191683800117855562000980565b8280016001018555821562000980579182015b828111156200097f57825182559160200191906001019062000962565b5b5090506200098f919062000a21565b5090565b828054600181600116156101000203166002900490600052602060002090601f016020900481019282601f10620009ce578054855562000a0e565b8280016001018555821562000a0e57600052602060002091601f016020900482015b8281111562000a0d578254825591600101919060010190620009f0565b5b50905062000a1d919062000a21565b5090565b62000a4691905b8082111562000a4257600081600090555060010162000a28565b5090565b90565b610c978062000a596000396000f3fe6080604052600436106100af576000357c0100000000000000000000000000000000000000000000000000000000900463ffffffff1680630ca0aa79146100b457806311f9c74d146100df57806328a20b5e1461010a5780636c0c1bcf1461027257806384eeda56146102c1578063927558601461044d57806397ba784f146104dd578063a7b2cfca14610508578063df4fddf514610598578063ed28969f146105cf578063eec65f291461063b575b600080fd5b3480156100c057600080fd5b506100c961068a565b6040518082815260200191505060405180910390f35b3480156100eb57600080fd5b506100f4610690565b6040518082815260200191505060405180910390f35b34801561011657600080fd5b5061011f610696565b60405180806020018060200180602001848103845287818151815260200191508051906020019080838360005b8381101561016757808201518184015260208101905061014c565b50505050905090810190601f1680156101945780820380516001836020036101000a031916815260200191505b50848103835286818151815260200191508051906020019080838360005b838110156101cd5780820151818401526020810190506101b2565b50505050905090810190601f1680156101fa5780820380516001836020036101000a031916815260200191505b50848103825285818151815260200191508051906020019080838360005b83811015610233578082015181840152602081019050610218565b50505050905090810190601f1680156102605780820380516001836020036101000a031916815260200191505b50965050505050505060405180910390f35b34801561027e57600080fd5b506102ab6004803603602081101561029557600080fd5b8101908080359060200190929190505050610876565b6040518082815260200191505060405180910390f35b3480156102cd57600080fd5b506102fa600480360360208110156102e457600080fd5b8101908080359060200190929190505050610899565b60405180806020018060200180602001848103845287818151815260200191508051906020019080838360005b83811015610342578082015181840152602081019050610327565b50505050905090810190601f16801561036f5780820380516001836020036101000a031916815260200191505b50848103835286818151815260200191508051906020019080838360005b838110156103a857808201518184015260208101905061038d565b50505050905090810190601f1680156103d55780820380516001836020036101000a031916815260200191505b50848103825285818151815260200191508051906020019080838360005b8381101561040e5780820151818401526020810190506103f3565b50505050905090810190601f16801561043b5780820380516001836020036101000a031916815260200191505b50965050505050505060405180910390f35b34801561045957600080fd5b50610462610a9a565b6040518080602001828103825283818151815260200191508051906020019080838360005b838110156104a2578082015181840152602081019050610487565b50505050905090810190601f1680156104cf5780820380516001836020036101000a031916815260200191505b509250505060405180910390f35b3480156104e957600080fd5b506104f2610b38565b6040518082815260200191505060405180910390f35b34801561051457600080fd5b5061051d610b3d565b6040518080602001828103825283818151815260200191508051906020019080838360005b8381101561055d578082015181840152602081019050610542565b50505050905090810190601f16801561058a5780820380516001836020036101000a031916815260200191505b509250505060405180910390f35b3480156105a457600080fd5b506105ad610bdb565b604051808263ffffffff1663ffffffff16815260200191505060405180910390f35b3480156105db57600080fd5b506105e4610bf1565b6040518080602001828103825283818151815260200191508051906020019060200280838360005b8381101561062757808201518184015260208101905061060c565b505050509050019250505060405180910390f35b34801561064757600080fd5b50610650610c49565b60405180826fffffffffffffffffffffffffffffffff166fffffffffffffffffffffffffffffffff16815260200191505060405180910390f35b60035481565b60005481565b6009806000018054600181600116156101000203166002900480601f0160208091040260200160405190810160405280929190818152602001828054600181600116156101000203166002900480156107305780601f1061070557610100808354040283529160200191610730565b820191906000526020600020905b81548152906001019060200180831161071357829003601f168201915b505050505090806001018054600181600116156101000203166002900480601f0160208091040260200160405190810160405280929190818152602001828054600181600116156101000203166002900480156107ce5780601f106107a3576101008083540402835291602001916107ce565b820191906000526020600020905b8154815290600101906020018083116107b157829003601f168201915b505050505090806002018054600181600116156101000203166002900480601f01602080910402602001604051908101604052809291908181526020018280546001816001161561010002031660029004801561086c5780601f106108415761010080835404028352916020019161086c565b820191906000526020600020905b81548152906001019060200180831161084f57829003601f168201915b5050505050905083565b60078181548110151561088557fe5b906000526020600020016000915090505481565b6008818154811015156108a857fe5b9060005260206000209060030201600091509050806000018054600181600116156101000203166002900480601f0160208091040260200160405190810160405280929190818152602001828054600181600116156101000203166002900480156109545780601f1061092957610100808354040283529160200191610954565b820191906000526020600020905b81548152906001019060200180831161093757829003601f168201915b505050505090806001018054600181600116156101000203166002900480601f0160208091040260200160405190810160405280929190818152602001828054600181600116156101000203166002900480156109f25780601f106109c7576101008083540402835291602001916109f2565b820191906000526020600020905b8154815290600101906020018083116109d557829003601f168201915b505050505090806002018054600181600116156101000203166002900480601f016020809104026020016040519081016040528092919081815260200182805460018160011615610100020316600290048015610a905780601f10610a6557610100808354040283529160200191610a90565b820191906000526020600020905b815481529060010190602001808311610a7357829003601f168201915b5050505050905083565b60048054600181600116156101000203166002900480601f016020809104026020016040519081016040528092919081815260200182805460018160011615610100020316600290048015610b305780601f10610b0557610100808354040283529160200191610b30565b820191906000526020600020905b815481529060010190602001808311610b1357829003601f168201915b505050505081565b601081565b60028054600181600116156101000203166002900480601f016020809104026020016040519081016040528092919081815260200182805460018160011615610100020316600290048015610bd35780601f10610ba857610100808354040283529160200191610bd3565b820191906000526020600020905b815481529060010190602001808311610bb657829003601f168201915b505050505081565b600160109054906101000a900463ffffffff1681565b60606007805480602002602001604051908101604052809291908181526020018280548015610c3f57602002820191906000526020600020905b815481526020019060010190808311610c2b575b5050505050905090565b600160009054906101000a90046fffffffffffffffffffffffffffffffff168156fea165627a7a723058204aa52d2f256f2891b673295788c8a2f66c718f49b5baaee3f3451c0d6163ea7a0029",
  "source": "pragma solidity >=0.4.21 <0.6.0;\r\n\r\ncontract ComplexStorage {\r\n    uint public storeduint1 = 15;\r\n    uint public constant constuint = 16;\r\n    uint128 public investmentsLimit = 17055;\r\n    uint32 public investmentsDeadlineTimeStamp = uint32(now);\r\n\r\n    bytes public string1 = \"Hey I am a utf-8 encoded string!\";\r\n    bytes32 public string2 = \"你好！\";\r\n    string public string3 = \"lets string something\";\r\n\r\n    mapping (address => uint) uints1;\r\n    mapping (address => DeviceData) structs1;\r\n\r\n    uint[] public uintarray;\r\n    DeviceData[] public deviceDataArray;\r\n    DeviceData public singleDD;\r\n\r\n    struct DeviceData {\r\n        string deviceBrand;\r\n        string deviceYear;\r\n        string batteryWearLevel;\r\n    }\r\n\r\n    constructor() public {\r\n        address address1 = 0xbCcc714d56bc0da0fd33d96d2a87b680dD6D0DF6;\r\n        address address2 = 0xaee905FdD3ED851e48d22059575b9F4245A82B04;\r\n\r\n        uints1[address1] = 88;\r\n        uints1[address2] = 99;\r\n\r\n        structs1[address1] = DeviceData(\"deviceBrand\", \"deviceYear\", \"wearLevel\");\r\n        structs1[address2] = DeviceData(\"deviceBrand2\", \"deviceYear2\", \"wearLevel2\");\r\n        singleDD = DeviceData(\"deviceBrand3\", \"deviceYear3\", \"wearLevel3\");\r\n\r\n        uintarray.push(8000);\r\n        uintarray.push(9000);\r\n\r\n        deviceDataArray.push(structs1[address1]);\r\n        deviceDataArray.push(structs1[address2]);\r\n    }\r\n\r\n    function get_uintarray() public view returns(uint[] memory) {\r\n        return uintarray;\r\n    }\r\n}\r\n",
  "sourcePath": "C:/Users/PRIYA/Desktop/codebreak/contracts/ComplexStorage.sol",
  "compiler": {
    "name": "solc",
    "version": "0.5.0+commit.1d4f565a.Emscripten.clang"
  },
  "schemaVersion": "3.0.1",
  "updatedAt": "2019-12-22T07:42:06.811Z",
  "devdoc": {
    "methods": {}
  },
  "userdoc": {
    "methods": {}
  }
}