{
  "contractName": "person",
  "abi": [
    {
      "constant": true,
      "inputs": [],
      "name": "count",
      "outputs": [
        {
          "name": "",
          "type": "uint256"
        }
      ],
      "payable": false,
      "stateMutability": "view",
      "type": "function",
      "signature": "0x06661abd"
    },
    {
      "constant": true,
      "inputs": [
        {
          "name": "",
          "type": "address"
        }
      ],
      "name": "sabkidetails",
      "outputs": [
        {
          "name": "name",
          "type": "string"
        },
        {
          "name": "surname",
          "type": "string"
        },
        {
          "name": "gender",
          "type": "string"
        },
        {
          "name": "damage",
          "type": "uint256"
        }
      ],
      "payable": false,
      "stateMutability": "view",
      "type": "function",
      "signature": "0x210e2c96"
    },
    {
      "constant": true,
      "inputs": [
        {
          "name": "",
          "type": "address"
        }
      ],
      "name": "created",
      "outputs": [
        {
          "name": "",
          "type": "bool"
        }
      ],
      "payable": false,
      "stateMutability": "view",
      "type": "function",
      "signature": "0xd42efd83"
    },
    {
      "constant": false,
      "inputs": [
        {
          "name": "_name",
          "type": "string"
        },
        {
          "name": "_surname",
          "type": "string"
        },
        {
          "name": "_gender",
          "type": "string"
        },
        {
          "name": "_damage",
          "type": "uint256"
        }
      ],
      "name": "adddetails",
      "outputs": [],
      "payable": false,
      "stateMutability": "nonpayable",
      "type": "function",
      "signature": "0x2c13318f"
    }
  ],
  "bytecode": "0x608060405234801561001057600080fd5b50610925806100206000396000f3fe608060405260043610610062576000357c0100000000000000000000000000000000000000000000000000000000900463ffffffff16806306661abd14610067578063210e2c96146100925780632c13318f1461023b578063d42efd831461043b575b600080fd5b34801561007357600080fd5b5061007c6104a4565b6040518082815260200191505060405180910390f35b34801561009e57600080fd5b506100e1600480360360208110156100b557600080fd5b81019080803573ffffffffffffffffffffffffffffffffffffffff1690602001909291905050506104aa565b60405180806020018060200180602001858152602001848103845288818151815260200191508051906020019080838360005b8381101561012f578082015181840152602081019050610114565b50505050905090810190601f16801561015c5780820380516001836020036101000a031916815260200191505b50848103835287818151815260200191508051906020019080838360005b8381101561019557808201518184015260208101905061017a565b50505050905090810190601f1680156101c25780820380516001836020036101000a031916815260200191505b50848103825286818151815260200191508051906020019080838360005b838110156101fb5780820151818401526020810190506101e0565b50505050905090810190601f1680156102285780820380516001836020036101000a031916815260200191505b5097505050505050505060405180910390f35b34801561024757600080fd5b506104396004803603608081101561025e57600080fd5b810190808035906020019064010000000081111561027b57600080fd5b82018360208201111561028d57600080fd5b803590602001918460018302840111640100000000831117156102af57600080fd5b91908080601f016020809104026020016040519081016040528093929190818152602001838380828437600081840152601f19601f8201169050808301925050505050505091929192908035906020019064010000000081111561031257600080fd5b82018360208201111561032457600080fd5b8035906020019184600183028401116401000000008311171561034657600080fd5b91908080601f016020809104026020016040519081016040528093929190818152602001838380828437600081840152601f19601f820116905080830192505050505050509192919290803590602001906401000000008111156103a957600080fd5b8201836020820111156103bb57600080fd5b803590602001918460018302840111640100000000831117156103dd57600080fd5b91908080601f016020809104026020016040519081016040528093929190818152602001838380828437600081840152601f19601f820116905080830192505050505050509192919290803590602001909291905050506106a2565b005b34801561044757600080fd5b5061048a6004803603602081101561045e57600080fd5b81019080803573ffffffffffffffffffffffffffffffffffffffff169060200190929190505050610834565b604051808215151515815260200191505060405180910390f35b60005481565b6002602052806000526040600020600091509050806000018054600181600116156101000203166002900480601f0160208091040260200160405190810160405280929190818152602001828054600181600116156101000203166002900480156105565780601f1061052b57610100808354040283529160200191610556565b820191906000526020600020905b81548152906001019060200180831161053957829003601f168201915b505050505090806001018054600181600116156101000203166002900480601f0160208091040260200160405190810160405280929190818152602001828054600181600116156101000203166002900480156105f45780601f106105c9576101008083540402835291602001916105f4565b820191906000526020600020905b8154815290600101906020018083116105d757829003601f168201915b505050505090806002018054600181600116156101000203166002900480601f0160208091040260200160405190810160405280929190818152602001828054600181600116156101000203166002900480156106925780601f1061066757610100808354040283529160200191610692565b820191906000526020600020905b81548152906001019060200180831161067557829003601f168201915b5050505050908060030154905084565b60001515600160003373ffffffffffffffffffffffffffffffffffffffff1673ffffffffffffffffffffffffffffffffffffffff16815260200190815260200160002060009054906101000a900460ff16151514151561070157600080fd5b600080815480929190600101919050555060806040519081016040528085815260200184815260200183815260200182815250600260003373ffffffffffffffffffffffffffffffffffffffff1673ffffffffffffffffffffffffffffffffffffffff168152602001908152602001600020600082015181600001908051906020019061078f929190610854565b5060208201518160010190805190602001906107ac929190610854565b5060408201518160020190805190602001906107c9929190610854565b506060820151816003015590505060018060003373ffffffffffffffffffffffffffffffffffffffff1673ffffffffffffffffffffffffffffffffffffffff16815260200190815260200160002060006101000a81548160ff02191690831515021790555050505050565b60016020528060005260406000206000915054906101000a900460ff1681565b828054600181600116156101000203166002900490600052602060002090601f016020900481019282601f1061089557805160ff19168380011785556108c3565b828001600101855582156108c3579182015b828111156108c25782518255916020019190600101906108a7565b5b5090506108d091906108d4565b5090565b6108f691905b808211156108f25760008160009055506001016108da565b5090565b9056fea165627a7a72305820e7315742858da9f8162d7dee9050e755f3b93fe334b689590618e2906566eb100029",
  "source": "pragma solidity ^0.5.0;\r\n\r\n\r\ncontract person{\r\n    \r\nuint public count;\r\n\r\n\r\n\r\n\r\nstruct singledetails {\r\n    \r\n    string name;\r\n    string surname;\r\n    string gender;\r\n    uint damage;\r\n    \r\n}\r\n\r\nmapping (address=>bool) public created;\r\nmapping (address => singledetails) public sabkidetails;  \r\n\r\nfunction adddetails( string memory _name,string memory _surname,string memory _gender,uint _damage) public onlyOwner{\r\n\r\n      count++;\r\n      sabkidetails[msg.sender]=singledetails(_name,_surname,_gender,_damage);\r\n      created[msg.sender]=true;\r\n  } \r\n  \r\n  \r\n  \r\n  \r\n    modifier onlyOwner {\r\n        require(created[msg.sender] == false);\r\n        _;\r\n    }\r\n\r\n\r\n    \r\n}\r\n\r\n",
  "sourcePath": "C:/Users/PRIYA/Desktop/codebreak/contracts/person.sol",
  "compiler": {
    "name": "solc",
    "version": "0.5.0+commit.1d4f565a.Emscripten.clang"
  },
  "schemaVersion": "3.0.1",
  "updatedAt": "2019-12-22T07:42:06.808Z",
  "devdoc": {
    "methods": {}
  },
  "userdoc": {
    "methods": {}
  }
}